:100000003BC040C03FC03EC03DC03CC03BC03AC00A
:1000100039C038C0050505050505050505050505B3
:100020000505060606060707070808090A0B0B0C54
:100030000E0F1011131516181A1D1F2124272A2D13
:100040003033363A3E42454A4E52575B6064696EE1
:1000500073787D82878C92979CA1A6ABB0B5BABF0E
:10006000C3C8CCD1D5D9DDE0E4E7EAEDF0F3F5F78C
:10007000F9FBFCFDFEFEFFFF11241FBECFE9CDBF43
:1000800052D0BFC0BDCF80E0843688F4E82FF0E0C6
:10009000EC5EFF4FE491E9BD99B590936400EFE900
:1000A000FCE83197F1F700C000008F5FEDCFE7E784
:1000B000F0E0849189BD89B5809364008FE99CE864
:1000C0000197F1F700C00000319790E0E431F907A3
:1000D00081F780E0DBCF80E0E82FF0E0EC5EFF4FBF
:1000E000E491E9BD99B590936400EFE9FCE831979C
:1000F000F1F700C000008F5F843670F3ECCF682FFB
:1001000020E030E080E070E0AB01022E02C05595A7
:1001100047950A94E2F74170840F2F5F3F4F2830D4
:10012000310591F70895CF93DF931F92CDB7DD2767
:1001300080E090E050D0282FC12CD12CF12C8601EA
:10014000005A1F4FF80180812983D9DFF80EF8018A
:100150001082FFEFCF1ADF0A298184E0C816D1048C
:1001600071F7F11002C02F5F08C0E3E1EF1528F02E
:10017000222311F0215001C023E0B99A81E28FBD02
:1001800081E083BF19BC263008F020E0E199FECF62
:10019000622F80E090E0298326D02981233099F0D6
:1001A00028F4213051F0223059F004C0243071F08D
:1001B000253069F08FEF89BD05C080E489BD02C09C
:1001C00080E189BDFFCF84E089BDFCCF5CDF8091F9
:1001D000640089BDF7CFE199FECF1FBA8EBBE09ACC
:1001E00099278DB30895262FE199FECF1CBA1FBA27
:1001F0008EBB2DBB0FB6F894E29AE19A0FBE019622
:060200000895F894FFCF01
:00000001FF
