:1000000009C00EC00DC00CC00BC00AC009C008C09A
:1000100007C006C011241FBECFE9CDBF02D043C028
:10002000EFCFB99A81E28FBD81E083BF19BC80E038
:1000300090E023D0C82F80916000811101C0CF5F74
:1000400010926000C43008F0C0E0E199FECF6C2F40
:1000500080E090E01AD0C23051F0C33059F0C13086
:1000600019F08FEF89BD05C080E489BD02C080E131
:1000700089BDFFCF84E089BDFCCFE199FECF1FBAD7
:100080008EBBE09A99278DB30895262FE199FECF74
:100090001CBA1FBA8EBB2DBB0FB6F894E29AE19A38
:0A00A0000FBE01960895F894FFCFFB
:00000001FF
