:1000000038C03DC03CC03BC03AC039C038C037C022
:1000100036C035C0040404040404040505050506BF
:100020000606070708090A0A0B0D0E0F1012141511
:1000300017191C1E202326292C2F3236393D414505
:10004000494D51565A5F64696E73787D82878C91F1
:10005000969CA1A6ABB0B5BABEC3C8CCD1D5D9DDEC
:10006000E0E4E7EAEDF0F3F5F7F9FAFCFDFEFEFF58
:10007000FF0011241FBECFE9CDBF3ED0A5C0C0CF29
:1000800080E08D3588F4E82FF0E0EC5EFF4FE491DE
:10009000E9BD99B590936000EFE9FCE83197F1F77D
:1000A00000C000008F5FEDCFE0E7F0E0849189BDF4
:1000B00089B5809360008FE99CE80197F1F700C053
:1000C0000000319790E0E431F90781F780E0DBCF61
:1000D00080E0E82FF0E0EC5EFF4FE491E9BD99B5D8
:1000E00090936000EFE9FCE83197F1F700C0000061
:1000F0008F5F8D3570F3ECCFB99A81E28FBD81E0CF
:1001000083BF19BC80E090E049D08093610080916A
:100110006200882349F080916100853029F4809144
:1001200061008F5F8093610080916200811105C042
:10013000809161008F5F80936100109262008091D6
:100140006100863010F010926100E199FECF60915D
:10015000610080E090E02AD080916100823091F0CF
:1001600028F4882349F0813051F00BC0843081F0AD
:1001700060F0853071F005C08FEF89BD02C080E46A
:1001800089BD0BC080E189BDFCCF84E089BDF9CF7A
:1001900077DF8091600089BDF4CFFFCFE199FECF7A
:1001A0001FBA8EBBE09A99278DB30895262FE19947
:1001B000FECF1CBA1FBA8EBB2DBB0FB6F894E29AC5
:0C01C000E19A0FBE01960895F894FFCF5D
:00000001FF
