:100000003BC040C03FC03EC03DC03CC03BC03AC00A
:1000100039C038C0050505050505050505050505B3
:100020000505060606060707070808090A0B0B0C54
:100030000E0F1011131516181A1D1F2124272A2D13
:100040003033363A3E42454A4E52575B6064696EE1
:1000500073787D82878C92979CA1A6ABB0B5BABF0E
:10006000C3C8CCD1D5D9DDE0E4E7EAEDF0F3F5F78C
:10007000F9FBFCFDFEFEFFFF11241FBECFE9CDBF43
:100080003ED0B4C0BDCF80E0843688F4E82FF0E0E5
:10009000EC5EFF4FE491E9BD99B590936300EFE901
:1000A000FCE83197F1F700C000008F5FEDCFE7E784
:1000B000F0E0849189BD89B5809363008FE99CE865
:1000C0000197F1F700C00000319790E0E431F907A3
:1000D00081F780E0DBCF80E0E82FF0E0EC5EFF4FBF
:1000E000E491E9BD99B590936300EFE9FCE831979D
:1000F000F1F700C000008F5F843670F3ECCF809181
:100100006500882359F010926400109262001092EA
:10011000610010926000109263000AC08091640038
:100120008F5F80936400809162008F5F8093620094
:100130001092650080916400863010F01092640087
:1001400080916200833048F080916100811105C088
:1001500081E08093610010926000809160008111C5
:1001600010926000B99A809161008823B1F080916B
:100170006000811112C0C19A8FEB9DE50197F1F7E4
:1001800000C00000C1989FE721E581E09150204028
:100190008040E1F700C00000EECF81E28FBD81E03A
:1001A00083BF19BC80916400823089F030F48823C9
:1001B00061F0813091F480E40FC0843061F048F048
:1001C000853059F48091630007C08FEF05C080E14E
:1001D00003C084E001C057DF89BD8FE295E7019736
:1001E000F1F700C0000010926200FFCFF894FFCF3B
:00000001FF
