:100000003BC040C03FC03EC03DC03CC03BC03AC00A
:1000100039C038C0050505050505050505050505B3
:100020000505060606060707070808090A0B0B0C54
:100030000E0F1011131516181A1D1F2124272A2D13
:100040003033363A3E42454A4E52575B6064696EE1
:1000500073787D82878C92979CA1A6ABB0B5BABF0E
:10006000C3C8CCD1D5D9DDE0E4E7EAEDF0F3F5F78C
:10007000F9FBFCFDFEFEFFFF11241FBECFE9CDBF43
:1000800052D0B6C0BDCF80E0843688F4E82FF0E0CF
:10009000EC5EFF4FE491E9BD99B590936400EFE900
:1000A000FCE83197F1F700C000008F5FEDCFE7E784
:1000B000F0E0849189BD89B5809364008FE99CE864
:1000C0000197F1F700C00000319790E0E431F907A3
:1000D00081F780E0DBCF80E0E82FF0E0EC5EFF4FBF
:1000E000E491E9BD99B590936400EFE9FCE831979C
:1000F000F1F700C000008F5F843670F3ECCF682FFB
:1001000020E030E080E070E0AB01022E02C05595A7
:1001100047950A94E2F74170840F2F5F3F4F2830D4
:10012000310591F7089580E090E04CD0E82EC0E0D2
:10013000D0E0F12C8E01005A1F4FF8018081DFDFE3
:10014000F80EF80110822196C430D10599F7F1100C
:1001500002C0C1E006C0F3E1FF1528F0EE2029F04F
:10016000CFEFCE0D03C0C0E001C0C3E0B99A81E279
:100170008FBD81E083BF19BCC63008F0C0E0E199B3
:10018000FECF6C2F80E090E025D0C33099F028F4AA
:10019000C13051F0C23059F004C0C43071F0C530E4
:1001A00069F08FEF89BD05C080E489BD02C080E1A0
:1001B00089BDFFCF84E089BDFCCF65DF80916400FD
:1001C00089BDF7CFE199FECF1FBA8EBBE09A992780
:1001D0008DB30895262FE199FECF1CBA1FBA8EBBAE
:1001E0002DBB0FB6F894E29AE19A0FBE01960895DE
:0401F000F894FFCFB1
:00000001FF
