:100000003BC040C03FC03EC03DC03CC03BC03AC00A
:1000100039C038C0040404040404040404040404BF
:10002000040405050505060606070708090A0A0B64
:100030000D0E0F1012141517191C1E202326292C23
:100040002F3236393D4145494D51565A5F64696EEC
:1000500073787D82878C91969CA1A6ABB0B5BABE11
:10006000C3C8CCD1D5D9DDE0E4E7EAEDF0F3F5F78C
:10007000F9FAFCFDFEFEFFFF11241FBECFE9CDBF44
:1000800047D097C0BDCF80E08436A0F4E82FF0E0E1
:10009000EC5EFF4FE491E9BD99B5909360002FEFBE
:1000A00030EE90E0215030409040E1F700C0000079
:1000B0008F5FEACFE7E7F0E0849189BD89B580934F
:1000C00060002FEF30EE80E0215030408040E1F7BB
:1000D00000C00000319790E0E431F90769F780E053
:1000E000D5CF80E0E82FF0E0EC5EFF4FE491E9BD72
:1000F00099B5909360002FEF30EE90E021503040A2
:100100009040E1F700C000008F5F843658F3E9CFDC
:10011000B99A81E28FBD81E083BF19BC80E090E095
:1001200032D0C82F809161008111C0E080916100C0
:10013000811101C0CF5F10926100C63008F0C0E0AD
:10014000E199FECF6C2F80E090E025D0C33099F08C
:1001500028F4C13051F0C23059F004C0C43071F0FD
:10016000C53069F08FEF89BD05C080E489BD02C04C
:1001700080E189BDFFCF84E089BDFCCF84DF809121
:10018000600089BDF7CFE199FECF1FBA8EBBE09A20
:1001900099278DB30895262FE199FECF1CBA1FBA77
:1001A0008EBB2DBB0FB6F894E29AE19A0FBE019672
:0601B0000895F894FFCF52
:00000001FF
