:100000003BC040C03FC03EC03DC03CC03BC03AC00A
:1000100039C038C0040404040404040404040404BF
:10002000040405050505060606070708090A0A0B64
:100030000D0E0F1012141517191C1E202326292C23
:100040002F3236393D4145494D51565A5F64696EEC
:1000500073787D82878C91969CA1A6ABB0B5BABE11
:10006000C3C8CCD1D5D9DDE0E4E7EAEDF0F3F5F78C
:10007000F9FAFCFDFEFEFFFF11241FBECFE9CDBF44
:100080003ED07BC0BDCF80E0843688F4E82FF0E01E
:10009000EC5EFF4FE491E9BD99B590936000EFE904
:1000A000FCE83197F1F700C000008F5FEDCFE7E784
:1000B000F0E0849189BD89B5809360008FE99CE868
:1000C0000197F1F700C00000319790E0E431F907A3
:1000D00081F780E0DBCF80E0E82FF0E0EC5EFF4FBF
:1000E000E491E9BD99B590936000EFE9FCE83197A0
:1000F000F1F700C000008F5F843670F3ECCFB99A3F
:1001000081E28FBD81E083BF19BC809162008111C3
:100110001092610080916200811105C080916100A0
:100120008F5F809361001092620080916100863041
:1001300010F01092610080916100823091F028F4FB
:10014000882349F0813051F00BC0843081F060F099
:10015000853071F005C08FEF89BD02C080E489BD94
:100160000BC080E189BDFCCF84E089BDF9CF8BDF76
:0E0170008091600089BDF4CFFFCFF894FFCFDF
:00000001FF
