:100000003BC040C03FC03EC03DC03CC03BC03AC00A
:1000100039C038C0050505050505050505060606B0
:10002000060607070808090A0B0C0E101215181B04
:1000300020252B323A434D586572808F9EAEBDCB42
:10004000D8E4EFF6FCFFFFFCF6EFE4D8CBBDAE9EA4
:100050008F807265584D433A322B25201B1815129C
:10006000100E0C0B0A090808070706060606060507
:10007000050505050505050511241FBECFE9CDBF02
:1000800019D069C0BDCF80E0E82FF0E0EC5EFF4FF3
:10009000E491E9BD99B5909360002FEF30EE90E0C8
:1000A000215030409040E1F700C000008F5F84365F
:1000B00058F3E9CFB99A81E28FBD81E083BF19BCC3
:1000C00080E090E032D0C82F809161008111C0E0C3
:1000D00080916100811101C0CF5F10926100C63034
:1000E00008F0C0E0E199FECF6C2F80E090E025D0D1
:1000F000C33099F028F4C13051F0C23059F004C037
:10010000C43071F0C53069F08FEF89BD05C080E45F
:1001100089BD02C080E189BDFFCF84E089BDFCCFED
:10012000B2DF8091600089BDF7CFE199FECF1FBAA1
:100130008EBBE09A99278DB30895262FE199FECFC3
:100140001CBA1FBA8EBB2DBB0FB6F894E29AE19A87
:0A0150000FBE01960895F894FFCF4A
:00000001FF
